:020000040800F2
:10000000A8330020C10100080D1D00087D14000860
:10001000091D0008CD020008A11F00080000000013
:10002000000000000000000000000000B91E0008F1
:10003000D1020008000000000F1D0008BB1E0008D0
:10004000DB010008DB010008DB010008DB01000820
:10005000DB010008DB010008DB010008DB01000810
:10006000DB010008DB010008DB010008DB01000800
:10007000DB010008DB010008DB010008DB010008F0
:10008000DB010008DB010008DB010008DB010008E0
:10009000DB010008DB010008DB010008DB010008D0
:1000A000DB010008DB010008DB010008DB010008C0
:1000B000DB010008DB010008DB010008DB010008B0
:1000C000DB010008DB010008DB010008DB010008A0
:1000D000DB010008DB010008DB010008DB01000890
:1000E000DB010008DB010008DB010008DB01000880
:1000F000DB010008DB010008DB010008DB01000870
:10010000DB010008DB010008DB010008DB0100085F
:10011000DB010008DB010008DB010008DB0100084F
:10012000DB010008DB010008DB010008DB0100083F
:10013000DB010008DB010008DB010008DB0100082F
:10014000DB010008DB010008DB010008DB0100081F
:10015000DB010008DB010008DB010008DB0100080F
:10016000DB010008DB010008DB010008DB010008FF
:10017000DB010008DB010008DB01000800000000D3
:10018000DB010008DB010008DB010008DB010008DF
:10019000DB010008DB010008DB010008DB010008CF
:1001A000DB010008DB010008DB010008DFF80CD0F0
:1001B00000F07AF800480047FB1F0008A833002031
:1001C0000648804706480047FEE7FEE7FEE7FEE7F1
:1001D000FEE7FEE7FEE7FEE7FEE7FEE7851F000815
:1001E000AD0100082DE9F05F0546002092469B46D0
:1001F00088460646814640241BE02846414647463D
:10020000224600F041F853465A46C01A914110D395
:1002100011461846224600F028F82D1A67EB01080F
:100220004F4622460120002100F01FF817EB00097D
:100230004E41201EA4F10104DFDC484631462A4627
:100240004346BDE8F09FD2B201E000F8012B491E01
:10025000FBD270470022F6E710B513460A46044663
:100260001946FFF7F0FF204610BD202A04DB203A94
:1002700000FA02F1002070479140C2F1200320FAF9
:1002800003F3194390407047202A04DB203A21FAF7
:1002900002F00021704721FA02F3D040C2F120029F
:1002A0009140084319467047064C074D06E0E06848
:1002B00040F0010394E8070098471034AC42F6D3AD
:1002C000FFF778FF342000085420000800BFFEE745
:1002D0007047704770B5044600F024F9064625467D
:1002E000681C10B104480078054400BF00F01AF9FA
:1002F000801BA842FAD370BD64000020F8B5024606
:100300000B460025002400200021E6E0012606FA25
:1003100001F51E6806EA0504AC4273D15E68012E41
:1003200008D05E68022E05D05E68112E02D05E688D
:10033000122E13D190684F000326BE40B0434F00E9
:10034000DE68BE4030439060506801268E40B04366
:100350001E79C6F300168E4030435060D0684F00BF
:100360000326BE40B0434F009E68BE403043D0607D
:100370005E68022E02D05E68122E13D1CF0802F101
:10038000200656F827004E07F70E0F26BE40B04352
:100390004F07FF0E1E69BE403043CF0802F1200612
:1003A00046F8270010684F000326BE40B0431E7970
:1003B00006F003064F00BE40304310605E6806F052
:1003C0008056B6F1805FA8D100BF00260096454E4A
:1003D000366846F48046434F3E603E46366806F433
:1003E0008046009600BF00BF3F4E8F0856F827009A
:1003F0008E07370F0F26BE40B0433C4EB24202D1AB
:1004000000262EE068E03A4EB24201D1012628E0F3
:10041000384EB24201D1022623E0374EB24201D11A
:1004200003261EE0354EB24201D1042619E0344EB7
:10043000B24201D1052614E0324EB24201D1062665
:100440000FE0314EB24201D107260AE02F4EB242F0
:1004500001D1082605E02E4EB24201D1092600E066
:100460000A268F073F0FBE4030431F4E8F0846F8C5
:100470002700284E3068A0435E6806F48036B6F543
:10048000803F00D12043234E3060361D3068A043AA
:100490005E6806F40036B6F5003F00D120431D4EDD
:1004A000361D3060361D3068A0435E6806F4801645
:1004B000B6F5801F00D12043164E08363060361D39
:1004C0003068A0435E6806F40016B6F5001F00D140
:1004D0002043104E0C363060491C1029FFF416AF33
:1004E000F8BD0000443802400838014000000240D6
:1004F0000004024000080240000C024000100240CC
:100500000014024000180240001C0240002002407B
:1005100000240240003C01400AB1816101E00B046B
:100520008361704701480068704700005C0000204C
:100530000348006803490978084401490860704786
:100540005C0000206400002010B50D48006840F4F5
:1005500000700B4908600846006840F4806008603D
:100560000846006840F480700860032000F092F8AC
:10057000002000F007F800F02BF8002010BD00006C
:10058000003C024070B504460E4800784FF47A7182
:10059000B1FBF0F00C490968B1FBF0F5284600F01A
:1005A00053FF08B1012070BD102C07D20022214654
:1005B000501E00F031F80548046001E00120F2E728
:1005C0000020F0E7640000206800002060000020A8
:1005D00008B500BF002000900E48006840F480403D
:1005E0000C4908600846006800F48040009000BF95
:1005F00000BF00BF00200090081F006840F080503E
:10060000091F08600846006800F08050009000BF95
:1006100000BF08BD443802402DE9F05F80460D461A
:100620001646002701F0BEFC074639462A463346E7
:1006300001F00700C0F1070ABAF1040F02D94FF028
:10064000040A01E0C0F1070AD14600F1040ABAF138
:10065000070F02D24FF0000A01E0A0F1030AD446CE
:100660004FF0010A0AFA09FAAAF1010A0AEA020A93
:100670000AFA0CFA4FF0010B0BFA0CFBABF1010B71
:100680000BEA030B4AEA0B042146404601F092FCB8
:10069000BDE8F09F00BF00F00702064B19684FF657
:1006A000FF031940044B0B4343EA0221014B19603D
:1006B00000BF70470CED00E00000FA0538B50024DB
:1006C00000BF002000901D48006840F080501B498A
:1006D00008600846006800F08050009000BF00BF2E
:1006E000012017490864FFF71DFF044607E0FFF7E4
:1006F00019FF001BB0F57A7F01D9032038BD1148DE
:10070000406800F48030B0F5803FF0D101200C4902
:100710004864FFF707FF044607E0FFF703FF001BED
:10072000B0F57A7F01D90320E8E70648406800F475
:100730000030B0F5003FF0D10020DFE74038024044
:1007400000000E420070004070B504460D460CB922
:10075000012070BD5848006800F00F00A84209D27F
:1007600055490D700846006800F00F00A84201D0FE
:100770000120EEE7207800F0020002281DD1207849
:1007800000F00400042805D14C48006840F4E05013
:100790004A490860207800F00800082805D1474839
:1007A000006840F46040454908604448006820F013
:1007B000F000A168084341490860207800F001007A
:1007C000A8B36068012807D13C4808380068C0F326
:1007D0004040B8B90120BCE76068022802D06068D8
:1007E000032807D1354808380068C0F3406048B98D
:1007F0000120AEE7314808380068C0F3400008B96E
:100800000120A6E72D48006820F003006168084336
:100810002A490860FFF786FE064609E0FFF782FED8
:10082000801B41F28831884202D9032091E707E01A
:100830002248006800F00C006168B0EB810FEDD138
:100840001D48006800F00F00A84209D91A490D7030
:100850000846006800F00F00A84201D0012078E7A8
:10086000207800F00400042807D11448006820F420
:10087000E050E168084311490860207800F0080062
:10088000082808D10D48006820F46040216940EA3A
:10089000C1000A49086000F019F808490968C1F365
:1008A0000311074A515CC8400649086006480068C1
:1008B000FFF768FE00204CE7003C02400838024089
:1008C0001C20000868000020600000202DE9F0478F
:1008D000002400250026A1462548006800F00C00F1
:1008E00020B1042805D008283AD105E0DFF884902B
:1008F00039E0DFF8849036E01D48001F006800F002
:100900003F041B48001F006800F4800078B11A48BB
:100910001749091F0968C1F38811A0FB017001463E
:10092000224600233846FFF75DFC05460EE01148DD
:100930000F49091F0968C1F38811A0FB0170014626
:10094000224600233846FFF74DFC05460848001FA5
:100950000068C0F30140401C4600B5FBF6F902E018
:10096000DFF8109000BF00BF4846BDE8F0870000E8
:10097000083802400024F40040787D01F8B50446B0
:100980000CB90120F8BD207800F00100002874D0D7
:10099000F948006800F00C0004280DD0F648006803
:1009A00000F00C00082813D1F348001F006800F481
:1009B0008000B0F5800F0BD1EF4808380068C0F315
:1009C0004040002859D06068002856D10120D9E75E
:1009D00000BF6068B0F5803F08D1E748083800687C
:1009E00040F48030E449083908601EE06068B0F5E2
:1009F000A02F0DD1E0480838006840F48020DE497F
:100A0000083908600846006840F4803008600CE04F
:100A1000D9480838006820F48030D7490839086080
:100A20000846006820F48020086000BF606890B12C
:100A3000FFF778FD054606E0FFF774FD401B6428CC
:100A400001D903209EE7CC4808380068C0F3404035
:100A50000028F1D011E0FFF765FD054606E0FFF73D
:100A600061FD401B642801D903208BE7C248083888
:100A70000068C0F340400028F1D1207800F0020067
:100A800002285FD1BC48006800F00C0058B1BA4899
:100A9000006800F00C0008281CD1B748001F00684F
:100AA00000F48000B0B9B44808380068C0F34000D2
:100AB00020B1E068012801D0012063E7AE48083882
:100AC000006820F0F800216940EAC100AA4908390D
:100AD000086037E0E06800B30120A8490860FFF72C
:100AE00021FD054606E0FFF71DFD401B022801D948
:100AF000032047E7A04808380068C0F340000028FA
:100B0000F1D09D480838006820F0F800216940EADB
:100B1000C10099490839086014E00020974908602D
:100B2000FFF700FD054606E0FFF7FCFC401B02282E
:100B300001D9032026E7904808380068C0F3400038
:100B40000028F1D1207800F0080008282CD1606935
:100B5000A8B101208A490860FFF7E4FC054606E0D9
:100B6000FFF7E0FC401B022801D903200AE7824876
:100B70006C300068C0F340000028F1D014E0002081
:100B80007F490860FFF7CEFC054606E0FFF7CAFC88
:100B9000401B022801D90320F4E677486C30006836
:100BA000C0F340000028F1D1207800F004000428B0
:100BB00070D1002770483830006800F0805090B93C
:100BC00000BF002000906C483830006840F0805032
:100BD0006949383108600846006800F0805000908C
:100BE00000BF00BF01276748006800F48070B0B9FB
:100BF0006448006840F4807062490860FFF792FC26
:100C0000054606E0FFF78EFC401B022801D90320B1
:100C1000B8E65C48006800F480700028F2D000BF9D
:100C2000A068012808D154486830006840F00100ED
:100C30005149683108601DE0A06805280DD14E4873
:100C40006830006840F004004B496831086008468D
:100C5000006840F0010008600CE047486830006818
:100C600020F001004449683108600846006820F01F
:100C70000400086000BFA068A8B1FFF753FC054658
:100C800009E0FFF74FFC401B41F28831884202D94E
:100C9000032077E626E0384868300068C0F340005B
:100CA0000028EED013E0FFF73DFC054608E0FFF713
:100CB00039FC401B41F28831884201D9032061E6AA
:100CC0002D4868300068C0F340000028EFD1012FA4
:100CD00007D129483830006820F080502649383143
:100CE000086000BFA069002845D02348006800F0D4
:100CF0000C0008285DD0A069022845D100201F49BA
:100D00000866FFF70FFC054606E0FFF70BFC401BEB
:100D1000022801D9032035E6174808380068C0F3D7
:100D200040600028F1D1D4E907010843616A40EA34
:100D300081110122A06AC2EB500041EA00412C203F
:100D4000005D41EA00600C49091F086001200B4961
:100D50000866FFF7E7FB054606E0FFF7E3FB401BED
:100D6000022801D903200DE6034808380068C0F3C3
:100D700040600028F1D03FE00838024000004742C0
:100D8000800E47420070004000201C490866FFF7B3
:100D9000C9FB054606E0FFF7C5FB401B022801D949
:100DA0000320EFE516480068C0F340600028F2D148
:100DB00022E0A069012800D1E4E511480830066866
:100DC00006F48001E069814214D106F03F01206AF7
:100DD00081420FD147F6C0703040616A884209D124
:100DE00006F44031A06A814204D106F07061E06AE5
:100DF000814201D00120C5E50020C3E50000474243
:100E00000038024010B504460CB9012010BD606ADC
:100E100000B900BF0021A16294F8510028B9002058
:100E200084F85000204600F033F8022084F8510086
:100E30002068006820F0400021680860D4E90101C2
:100E40000843E16808432169084361690843218B2D
:100E500001F400710843E1690843216A0843A16A6B
:100E60000843216808600421A06901EA1040616A12
:100E70000843216848602068C06920F40060216848
:100E8000C86100206065012084F851000020BDE7A2
:100E900010B586B00446142101A8FFF7DBF91B4901
:100EA0002068884230D100BF0020009018480068B8
:100EB00040F48010164908600846006800F480106D
:100EC000009000BF00BF00BF002000901048143801
:100ED000006840F020000E49143908600846006898
:100EE00000F02000009000BF00BF4FF46070019040
:100EF000022002900020039003200490052005901A
:100F000001A90448FFF7FAF906B010BD00500140EE
:100F100044380240001402402DE9F8430446884654
:100F200016461D464FF000096068B0F5827F0DD16E
:100F3000A06858B9042084F851003346424641461F
:100F40002046009500F06BF9BDE8F88300BF94F8E7
:100F50005000012801D10220F6E7012084F850005A
:100F600000BFFFF7DFFA074694F85100012802D0CE
:100F70004FF0020978E0B8F1000F00D016B94FF039
:100F8000010971E0042084F8510000206065C4F874
:100F90003880A687E6872063A086E08620646064A8
:100FA000A068B0F5004F05D12068006820F48040AB
:100FB000216808602068006800F04000402805D0E3
:100FC0002068006840F0400021680860E068F8B9D7
:100FD0001AE02068806800F0010050B12068007BB2
:100FE000A16B0870A06B401CA063E08F401EE087DF
:100FF0000AE0FFF797FAC01BA84201D3681C00B9AA
:1010000015B94FF003092FE0E08F0028E1D11EE071
:101010001AE02068806800F0010050B12068C068C4
:10102000A16B0880A06B801CA063E08F401EE0874E
:101030000AE0FFF777FAC01BA84201D3681C00B989
:1010400015B94FF003090FE0E08F0028E1D13A46CF
:101050002946204600F05CFE08B120206065606DE6
:1010600008B14FF0010900BF012084F8510000BF12
:10107000002084F8500000BF484665E72DE9F84F8E
:101080000446884616461D464FF0000A00BF94F8F5
:101090005000012802D10220BDE8F88F012084F819
:1010A000500000BFFFF73EFA0746B14694F85100E2
:1010B000012802D04FF0020AA7E0B8F1000F00D0DB
:1010C00016B94FF0010AA0E0032084F85100002077
:1010D0006065C4F83080A686E686A063A087E087B6
:1010E00060642064A068B0F5004F05D120680068F6
:1010F00040F48040216808602068006800F04000EB
:10110000402805D02068006840F040002168086051
:10111000E068B0F5006F2FD1606810B1B9F1010F30
:1011200009D1206B00882168C860206B801C206377
:10113000E08E401EE0861BE02068806800F0020020
:1011400002280AD1206B00882168C860206B801CAF
:101150002063E08E401EE0860AE0FFF7E3F9C01B43
:10116000A84201D3681C00B915B94FF0030A4CE03E
:10117000E08E0028E0D12EE0606810B1B9F1010FD7
:1011800009D1206B007821680873206B401C206314
:10119000E08E401EE0861BE02068806800F00200C0
:1011A00002280AD1206B007821680873206B401C4C
:1011B0002063E08E401EE0860AE0FFF7B3F9C01B13
:1011C000A84201D3681C00B915B94FF0030A1CE00E
:1011D000E08E0028E0D13A462946204600F0E2FDA4
:1011E00008B120206065A06850B900BF00200090C1
:1011F0002068C068009020688068009000BF00BF31
:10120000606D08B14FF0010A00BF012084F8510061
:1012100000BF002084F8500000BF50463CE72DE995
:10122000FF5F0446884691461D460E9E01200290AF
:101230000020019000BF94F85000012803D1022043
:1012400004B0BDE8F09F012084F8500000BFFFF714
:1012500069F9074694F851B060680390AA46BBF15B
:10126000010F0BD00398B0F5827F04D1A06810B9AC
:10127000BBF1040F02D002200190DBE0B8F1000FB7
:1012800003D0B9F1000F00D015B901200190D1E0D1
:1012900094F85100042802D0052084F85100002061
:1012A0006065C4F83890E587A587C4F83080E58686
:1012B000A586206460642068006800F04000402833
:1012C00005D02068006840F0400021680860E068B0
:1012D000B0F5006F4AD1606810B1BAF1010F09D1C1
:1012E000206B00882168C860206B801C2063E08E22
:1012F000401EE08633E02068806800F0020002288B
:1013000010D1E08E70B1029801280BD1206B0088BB
:101310002168C860206B801C2063E08E401EE08640
:10132000002002902068806800F0010068B1E08F22
:1013300058B12068C068A16B0880A06B801CA063B6
:10134000E08F401EE08701200290FFF7EBF8C01B02
:10135000B04204D3701C10B1032001906AE0E08E0B
:101360000028C8D1E08F0028C5D14AE0606810B1DC
:10137000BAF1010F09D1206B007821680873206B46
:10138000401C2063E08E401EE08634E020688068C8
:1013900000F00200022810D1E08E70B102980128FE
:1013A0000BD1206B007821680873206B401C2063F0
:1013B000E08E401EE086002002902068806800F0E9
:1013C000010068B1E08F58B12068C068A16B087057
:1013D000A06B401CA063E08F401EE08701200290BC
:1013E000FFF7A0F8C01BB04201D3701C00B916B9BA
:1013F000032001901EE0E08E0028C7D1E08F002876
:10140000C4D13A463146204600F0CCFC20B1012040
:101410000190202060650DE0A06850B900BF002059
:1014200000902068C068009020688068009000BF2D
:1014300000BF00BF012084F8510000BF002084F8E5
:10144000500000BF0198FBE670B504462546681EB3
:10145000B0F1807F01D301200FE0681E4FF0E02142
:1014600048610F214FF0FF3000F0A4FD00204FF045
:10147000E021886107200861002070BD00BFFEE701
:1014800010B5012202214448FFF746F81420FEF768
:1014900021FF002202214048FFF73EF81420FEF70A
:1014A00019FF20203D490870FF2048703223022296
:1014B0003B48FFF7E3FD012202213748FFF72CF8F4
:1014C0001420FEF707FF002202213348FFF724F81B
:1014D0001420FEF7FFFE21203049087000204870DC
:1014E000322302222E48FFF7C9FD012202212A4899
:1014F000FFF712F81420FEF7EDFE00220221264825
:10150000FFF70AF81420FEF7E5FE222023490870B1
:1015100000204870322302222148FFF7AFFD01224C
:1015200002211D48FEF7F8FF1420FEF7D3FE00222B
:1015300002211948FEF7F0FF1420FEF7CBFE23200E
:101540001649087020204870322302221448FFF701
:1015500095FD012202211048FEF7DEFF1420FEF760
:10156000B9FE002202210C48FEF7D6FF1420FEF738
:10157000B1FE24200949087010204870322302224D
:101580000748FFF77BFD012202210348FEF7C4FF55
:101590001420FEF79FFE10BD0008024050000020FE
:1015A0006C000020F0B52DED028B93B0002012905E
:1015B000119010909FEDFD0AB0EE408A14210BA807
:1015C000FEF748FE142106A8FEF744FE142101A8E8
:1015D000FEF740FE0024002500260027F44800788E
:1015E00010B101287ED1A2E0F248007801287AD11A
:1015F00000220221F048FEF78FFFA820EF49087073
:1016000032230122EE48FFF739FD32230122ED4952
:10161000EB48FFF781FC01220221E748FEF77CFF3F
:1016200000220221E448FEF777FFA920E349087071
:1016300032230122E248FFF721FD32230122E14952
:10164000491CDF48FFF768FC01220221DA48FEF757
:1016500063FF00220221D848FEF75EFFAA20D74987
:10166000087032230122D648FFF708FD32230122F9
:10167000D449891CD248FFF74FFC01220221CE48F1
:10168000FEF74AFF00220221CB48FEF745FFAB20C0
:10169000CA49087032230122C948FFF7EFFC322300
:1016A0000122C849C91CC648FFF736FC01220221A5
:1016B000C148FEF731FF00220221BF48FEF72CFF90
:1016C000AC20BE49087032230122BD48FFF7D6FC8A
:1016D00032230122BB49091DB948FFF71DFC012235
:1016E000022101E06BE221E0B348FEF715FF002282
:1016F0000221B148FEF710FFAD20B0490870322337
:101700000122AF48FFF7BAFC32230122AD49491D3F
:10171000AB48FFF701FC01220221A748FEF7FCFEBF
:101720000120A34908700020A249087048E2A5489A
:10173000401E4078A349491E897840EA012000B242
:101740001290A048401EC0789E49491E097940EA7F
:10175000012000B211909B48401E40799949491ED2
:10176000897940EA012000B2109097480078022859
:101770007ED1BDF9480095490968401A00EE100A6B
:10178000B8EEC00ADFED920A20EE200A914880ED03
:10179000000ABDF9440090490968401A00EE100A99
:1017A000B8EEC00ADFED8A0A20EE200A8B4880EDF1
:1017B000000ABDF940008A490968401A00EE100A83
:1017C000B8EEC00ADFED820A20EE200A854880EDDF
:1017D000000A9FED850AB0EE408A7E4890ED000A2F
:1017E0008248D0ED000AB4EEE00AF1EE10FA0CDC0B
:1017F000784890ED000A7D48D0ED000AF1EE600ACD
:10180000B4EEE00AF1EE10FA1AD2724890ED000A36
:101810007748D0ED000A30EE200A60EE080AB0EEFC
:10182000001A80EE810A7348D0ED000A30EE200ADB
:1018300080ED000A674890ED000A6D4880ED000ACF
:10184000664890ED000A6C48D0ED000AB4EEE00A5C
:10185000F1EE10FA0EDC614890ED000A6648D0ED1A
:10186000000AF1EE600AB4EEE00AF1EE10FA00E0D0
:101870004FE01AD2594890ED000A6048D0ED000AB6
:1018800030EE200A20EE080AB0EE001AC0EE010A7F
:101890005B4890ED000A30EE800A80ED000A4F4868
:1018A00090ED000A554880ED000A4E4890ED000A80
:1018B0005448D0ED000AB4EEE00AF1EE10FA0CDC68
:1018C000484890ED000A4F48D0ED000AF1EE600A5A
:1018D000B4EEE00AF1EE10FA1AD2424890ED000A96
:1018E0004948D0ED000A30EE200A60EE080AB0EE5A
:1018F000001A80EE810A4548D0ED000A30EE200A39
:1019000080ED000A374890ED000A3F4880ED000A5C
:101910004EE12D48007820B1012827D0022844D17B
:1019200043E1BDF948103A483A4A126820F81210CB
:10193000BDF944003849374A126821F81200BDF950
:1019400040003649334A126821F8120031480068D5
:10195000401C3049086008460068B0F5FA6F04D3AF
:101960000020086001201849087020E1002079E07B
:101970000BA931F91410691A254A32F910208D1873
:1019800006A931F91410711A234A32F910208E1861
:1019900001A931F91410791A204A32F910208F1850
:1019A0001B4931F810100BAA3AE0FFE000000000DC
:1019B000020000200000002000080240500000202B
:1019C0006C000020530000200100002010000020C7
:1019D000295C8F3D04000020140000200800002036
:1019E000180000200C000020A69B443B1C00002097
:1019F00034000020280000202000002038000020B3
:101A00002C000020240000203C000020300000209A
:101A1000C40000204C00002064100020042000209E
:101A200022F81410694931F8101006AA22F814108F
:101A3000674931F8101001AA22F814100A2195FB09
:101A4000F1F1644A11600A2196FBF1F1624A1160DA
:101A50000A2197FBF1F1614A1160641C0A2C00D342
:101A60000024401CB0F5FA6F82D3002072E05C497C
:101A700031F91010574A1268891A5A4A126891426D
:101A800008DD574931F91010524A1268891A554A2F
:101A9000116012E0524931F910104E4A1268891A49
:101AA000504A12685242914207DA4D4931F91010FA
:101AB000484A1268511A4B4A1160444931F91010D2
:101AC000454A1268891A484A1268914208DD3F491E
:101AD00031F91010404A1268891A434A116012E025
:101AE0003A4931F910103C4A1268891A3E4A126884
:101AF0005242914207DA354931F91010364A1268DC
:101B0000511A394A1160324931F91010334A1268BA
:101B1000891A364A1268914208DD2D4931F91010B0
:101B20002E4A1268891A314A116012E0284931F9A7
:101B300010102A4A1268891A2C4A1268524291429D
:101B400007DA234931F91010244A1268511A274A3A
:101B50001160401CB0F5FA6F89D3224890ED000A5D
:101B6000B8EEC00A5FED660A20EE200A204880ED3C
:101B7000000A1D4890ED000AB8EEC00A5FED6C0A3D
:101B800020EE200A1B4880ED000A184890ED000A5C
:101B9000B8EEC00A5FED720A20EE200A164880ED0A
:101BA000000A02201549087001E000E000BF00BFF4
:101BB00000201349087001201249087000E000BF9E
:101BC00000BF13B0BDEC028BF0BD0000641000201C
:101BD0000420002010000020140000201800002025
:101BE000C4000020400000204400002048000020E5
:101BF0001C00002020000020240000200100002004
:101C0000020000200000002000B587B0142102A8C7
:101C1000FEF720FB00BF002001902748006840F03D
:101C20002000254908600846006800F02000019067
:101C300000BF00BF00BF002001900846006840F0D0
:101C4000040008600846006800F00400019000BF2E
:101C500000BF00BF002001900846006840F040002F
:101C600008600846006800F04000019000BF00BF17
:101C7000002202211148FEF74FFC00224FF4C04120
:101C80000F48FEF749FC022002900120039000203B
:101C90000490059002A90948FEF730FB4FF4C040BC
:101CA00002900120039000200490059002A90448AE
:101CB000FEF724FB07B000BD3038024000080240A8
:101CC0000018024010B50E480E4908604FF48270AB
:101CD000486000210B488160C160016141614FF49F
:101CE000007181612021C161002101624162816234
:101CF0000A21C162FFF786F808B1FEF7EAFA10BDC3
:101D0000005001406C00002000BFFEE770477047A4
:101D1000F8B504460E4615466068B0F5827F0DD1D1
:101D2000A068B0F5004F03D0A068B0F5806F05D172
:101D30002068006820F04000216808606068B0F505
:101D4000827F1FD1A068B0F5806F0DD0334600228E
:101D500080212046009500F05BF808B3606D40F0EC
:101D6000200060650320F8BD334600220121204693
:101D7000009500F04DF898B1606D40F0200060656E
:101D80000320F0E73346002201212046009500F0B1
:101D90003FF828B1606D40F0200060650320E2E765
:101DA0000020E0E77CB504460D461646164800685C
:101DB0001821B0FBF1F01549B0FBF1F04FF47A7146
:101DC000484301906068B0F5827F0DD12B46002218
:101DD00080212046009600F01BF898B1606D40F01D
:101DE0002000606503207CBD00BF019800B908E0B9
:101DF0000198401E019020688068C0F3C010002840
:101E0000F3D100BF0020EEE76800002040420F0041
:101E10002DE9F04104460E4617461D46DDF81880B0
:101E20003EE0681CD8B3FEF77DFBA0EB0800A8429B
:101E300000D2A5BB2068406820F0E000216848601F
:101E40006068B0F5827F0DD1A068B0F5004F03D077
:101E5000A068B0F5806F05D12068006820F04000D0
:101E600021680860A06AB0F5005F0DD100BF20684E
:101E7000006820F40050216808602068006840F481
:101E800000502168086000BF012084F8510000BFA5
:101E9000002084F8500000BF0320BDE8F081FFE778
:101EA000206880683040B04201D1012000E000206D
:101EB000B842B6D10020F0E7704710B5FEF738FB06
:101EC00010BD000000B593B0302107A8FEF7C2F99D
:101ED000142102A8FEF7BEF900BF00200190274898
:101EE000006840F08050254908600846006800F00E
:101EF0008050019000BF00BF00BF0020019020482B
:101F0000006840F440401E4908600846006800F43C
:101F10004040019000BF00BF0220079001200A90BE
:101F200010200B9002200D9000210E9108210F919E
:101F3000B4211091022111910421129107A8FEF7FA
:101F40001DFD08B1FEF7C5F9FEF7B8FB08B1FEF7B5
:101F5000C0F90F20029002200390002004904FF45B
:101F6000A05005904FF480500690052102A8FEF77E
:101F7000EBFB08B1FEF7ADF913B000BD40380240ED
:101F8000007000400548006840F470000349086094
:101F90004FF00060014980390860704788ED00E02B
:101FA00000BFFEE702480068C0F30220704700004F
:101FB0000CED00E010B5002804DB0A07130E054AFB
:101FC000135406E00A07140E034A00F00F031B1F08
:101FD000D45410BD00E400E018ED00E002E008C8B1
:101FE000121F08C1002AFAD170477047002001E093
:101FF00001C1121F002AFBD17047FEF7A5FAFFF7B7
:1020000061FFFFF701FEFFF75DFEFFF739FA04E01D
:10201000FFF7C8FA0120FEF75DF9F9E700000000BC
:102020000000000001020304060708090000000088
:102030000102030454200008000000206C0000008E
:10204000DC1F0008C02000086C0000203C330000AA
:10205000EC1F00080100000000000000000000006C
:102060000000000000000000000000000000000070
:102070000000000000000000000000000000000060
:102080000000000000000000000000000000000050
:102090000000000000000000000000000000000040
:1020A0000000000000000000000000000000000030
:1020B0000000000010000000010000000024F400F7
:04000005080001AD41
:00000001FF
